{"abi":[{"type":"constructor","inputs":[{"name":"_ticketNFT","type":"address","internalType":"address"}],"stateMutability":"nonpayable"},{"type":"receive","stateMutability":"payable"},{"type":"function","name":"buyListedTicket","inputs":[{"name":"_tokenId","type":"uint256","internalType":"uint256"}],"outputs":[],"stateMutability":"payable"},{"type":"function","name":"createEvent","inputs":[{"name":"_totalTickets","type":"uint256","internalType":"uint256"},{"name":"_pricePerTicket","type":"uint256","internalType":"uint256"}],"outputs":[{"name":"","type":"uint256","internalType":"uint256"}],"stateMutability":"nonpayable"},{"type":"function","name":"events","inputs":[{"name":"","type":"uint256","internalType":"uint256"}],"outputs":[{"name":"id","type":"uint256","internalType":"uint256"},{"name":"organizer","type":"address","internalType":"address"},{"name":"totalTickets","type":"uint256","internalType":"uint256"},{"name":"soldTickets","type":"uint256","internalType":"uint256"},{"name":"pricePerTicket","type":"uint256","internalType":"uint256"},{"name":"active","type":"bool","internalType":"bool"},{"name":"createdAt","type":"uint256","internalType":"uint256"}],"stateMutability":"view"},{"type":"function","name":"getAvailableTickets","inputs":[{"name":"_eventId","type":"uint256","internalType":"uint256"}],"outputs":[{"name":"","type":"uint256","internalType":"uint256"}],"stateMutability":"view"},{"type":"function","name":"getEventDetails","inputs":[{"name":"_eventId","type":"uint256","internalType":"uint256"}],"outputs":[{"name":"","type":"tuple","internalType":"struct TicketMarketplace.Event","components":[{"name":"id","type":"uint256","internalType":"uint256"},{"name":"organizer","type":"address","internalType":"address"},{"name":"totalTickets","type":"uint256","internalType":"uint256"},{"name":"soldTickets","type":"uint256","internalType":"uint256"},{"name":"pricePerTicket","type":"uint256","internalType":"uint256"},{"name":"active","type":"bool","internalType":"bool"},{"name":"createdAt","type":"uint256","internalType":"uint256"}]}],"stateMutability":"view"},{"type":"function","name":"listTicket","inputs":[{"name":"_tokenId","type":"uint256","internalType":"uint256"},{"name":"_price","type":"uint256","internalType":"uint256"}],"outputs":[],"stateMutability":"nonpayable"},{"type":"function","name":"listings","inputs":[{"name":"","type":"uint256","internalType":"uint256"}],"outputs":[{"name":"tokenId","type":"uint256","internalType":"uint256"},{"name":"seller","type":"address","internalType":"address"},{"name":"price","type":"uint256","internalType":"uint256"},{"name":"active","type":"bool","internalType":"bool"}],"stateMutability":"view"},{"type":"function","name":"owner","inputs":[],"outputs":[{"name":"","type":"address","internalType":"address"}],"stateMutability":"view"},{"type":"function","name":"platformFeePercentage","inputs":[],"outputs":[{"name":"","type":"uint256","internalType":"uint256"}],"stateMutability":"view"},{"type":"function","name":"purchaseTickets","inputs":[{"name":"_eventId","type":"uint256","internalType":"uint256"},{"name":"_quantity","type":"uint256","internalType":"uint256"},{"name":"_credentialHash","type":"bytes32","internalType":"bytes32"},{"name":"_uris","type":"string[]","internalType":"string[]"}],"outputs":[{"name":"","type":"uint256[]","internalType":"uint256[]"}],"stateMutability":"payable"},{"type":"function","name":"setPlatformFee","inputs":[{"name":"_percentage","type":"uint256","internalType":"uint256"}],"outputs":[],"stateMutability":"nonpayable"},{"type":"function","name":"ticketNFT","inputs":[],"outputs":[{"name":"","type":"address","internalType":"contract TicketNFT"}],"stateMutability":"view"},{"type":"function","name":"withdrawFees","inputs":[],"outputs":[],"stateMutability":"nonpayable"},{"type":"event","name":"EventCreated","inputs":[{"name":"eventId","type":"uint256","indexed":true,"internalType":"uint256"},{"name":"organizer","type":"address","indexed":false,"internalType":"address"},{"name":"ticketCount","type":"uint256","indexed":false,"internalType":"uint256"}],"anonymous":false},{"type":"event","name":"ListingCreated","inputs":[{"name":"tokenId","type":"uint256","indexed":true,"internalType":"uint256"},{"name":"seller","type":"address","indexed":false,"internalType":"address"},{"name":"price","type":"uint256","indexed":false,"internalType":"uint256"}],"anonymous":false},{"type":"event","name":"TicketPurchased","inputs":[{"name":"eventId","type":"uint256","indexed":true,"internalType":"uint256"},{"name":"buyer","type":"address","indexed":false,"internalType":"address"},{"name":"quantity","type":"uint256","indexed":false,"internalType":"uint256"}],"anonymous":false},{"type":"event","name":"TicketSold","inputs":[{"name":"tokenId","type":"uint256","indexed":true,"internalType":"uint256"},{"name":"from","type":"address","indexed":false,"internalType":"address"},{"name":"to","type":"address","indexed":false,"internalType":"address"},{"name":"price","type":"uint256","indexed":false,"internalType":"uint256"}],"anonymous":false}],"bytecode":{"object":"0x608060405260026004556001600555348015601957600080fd5b506040516112553803806112558339810160408190526036916063565b600080546001600160a01b039092166001600160a01b031992831617905560038054909116331790556091565b600060208284031215607457600080fd5b81516001600160a01b0381168114608a57600080fd5b9392505050565b6111b5806100a06000396000f3fe6080604052600436106100c65760003560e01c8063790c01251161007f578063cdd78cfc11610059578063cdd78cfc1461028d578063de74e57b146102a3578063e34183521461031d578063ec38d5a01461033d57600080fd5b8063790c0125146102155780638da5cb5b14610235578063b393391b1461026d57600080fd5b80630b791430146100d25780630cc7b2a91461017d57806312e8e2c3146101ab578063305a905a146101cd578063476343ee146101ed578063502488531461020257600080fd5b366100cd57005b600080fd5b3480156100de57600080fd5b506101396100ed366004610f3e565b600160208190526000918252604090912080549181015460028201546003830154600484015460058501546006909501546001600160a01b039094169492939192909160ff9091169087565b604080519788526001600160a01b0390961660208801529486019390935260608501919091526080840152151560a083015260c082015260e0015b60405180910390f35b34801561018957600080fd5b5061019d610198366004610f3e565b6103b9565b604051908152602001610174565b3480156101b757600080fd5b506101cb6101c6366004610f3e565b61041f565b005b3480156101d957600080fd5b506101cb6101e8366004610f57565b6104af565b3480156101f957600080fd5b506101cb61065a565b6101cb610210366004610f3e565b610744565b34801561022157600080fd5b5061019d610230366004610f57565b61098e565b34801561024157600080fd5b50600354610255906001600160a01b031681565b6040516001600160a01b039091168152602001610174565b34801561027957600080fd5b50600054610255906001600160a01b031681565b34801561029957600080fd5b5061019d60045481565b3480156102af57600080fd5b506102f36102be366004610f3e565b6002602081905260009182526040909120805460018201549282015460039092015490926001600160a01b0316919060ff1684565b604080519485526001600160a01b0390931660208501529183015215156060820152608001610174565b61033061032b366004610f79565b610adf565b604051610174919061100b565b34801561034957600080fd5b5061035d610358366004610f3e565b610e52565b6040516101749190815181526020808301516001600160a01b03169082015260408083015190820152606080830151908201526080808301519082015260a08083015115159082015260c0918201519181019190915260e00190565b600081815260016020526040812060050154829060ff166103f55760405162461bcd60e51b81526004016103ec9061104e565b60405180910390fd5b6000838152600160205260409020600381015460028201546104179190611092565b949350505050565b6003546001600160a01b0316331461046a5760405162461bcd60e51b815260206004820152600e60248201526d139bdd08185d5d1a1bdc9a5e995960921b60448201526064016103ec565b60058111156104aa5760405162461bcd60e51b815260206004820152600c60248201526b08ccaca40e8dede40d0d2ced60a31b60448201526064016103ec565b600455565b6000546040516331a9108f60e11b81526004810184905233916001600160a01b031690636352211e90602401602060405180830381865afa1580156104f8573d6000803e3d6000fd5b505050506040513d601f19601f8201168201806040525081019061051c91906110a5565b6001600160a01b0316146105655760405162461bcd60e51b815260206004820152601060248201526f2737ba103a34b1b5b2ba1037bbb732b960811b60448201526064016103ec565b600081116105a55760405162461bcd60e51b815260206004820152600d60248201526c496e76616c696420707269636560981b60448201526064016103ec565b6040805160808101825283815233602080830182815283850186815260016060860181815260008a815260028087529089902097518855935191870180546001600160a01b0319166001600160a01b0390931692909217909155905191850191909155516003909301805460ff191693151593909317909255825190815290810183905283917f9adf89188ff96bbe0e772b6a9345d935a240c2bd656be8db63db0d091e92cb9d910160405180910390a25050565b6003546001600160a01b031633146106a55760405162461bcd60e51b815260206004820152600e60248201526d139bdd08185d5d1a1bdc9a5e995960921b60448201526064016103ec565b60035460405147916000916001600160a01b039091169083908381818185875af1925050503d80600081146106f6576040519150601f19603f3d011682016040523d82523d6000602084013e6106fb565b606091505b50509050806107405760405162461bcd60e51b815260206004820152601160248201527015da5d1a191c985dd85b0819985a5b1959607a1b60448201526064016103ec565b5050565b6000818152600260205260409020600381015460ff1661079b5760405162461bcd60e51b81526020600482015260126024820152714c697374696e67206e6f742061637469766560701b60448201526064016103ec565b80600201543410156107e65760405162461bcd60e51b8152602060048201526014602482015273125b9cdd59999a58da595b9d081c185e5b595b9d60621b60448201526064016103ec565b600181015460038201805460ff19169055600054604051632142170760e11b81526001600160a01b03928316600482018190523360248301526044820186905292909116906342842e0e90606401600060405180830381600087803b15801561084e57600080fd5b505af1158015610862573d6000803e3d6000fd5b50505050600060646004543461087891906110d5565b61088291906110ec565b905060006108908234611092565b90506000836001600160a01b03168260405160006040518083038185875af1925050503d80600081146108df576040519150601f19603f3d011682016040523d82523d6000602084013e6108e4565b606091505b50509050806109355760405162461bcd60e51b815260206004820152601860248201527f5061796d656e7420746f2073656c6c6572206661696c6564000000000000000060448201526064016103ec565b6002850154604080516001600160a01b03871681523360208201529081019190915286907f2bbc64d6afd28a753f6c5e4aaa894f1d684c44a0e080167eae104ac8505cfebd9060600160405180910390a2505050505050565b60058054600091829190826109a28361110e565b909155506040805160e081018252828152336020808301918252828401898152600060608501818152608086018b8152600160a088018181524260c08a019081528b86529682905289852098518955965190880180546001600160a01b0319166001600160a01b03928316179055935160028801559051600387015551600480870191909155935160058601805460ff1916911515919091179055915160069094019390935554925163081f844360e21b8152908101849052929350169063207e110c90602401600060405180830381600087803b158015610a8357600080fd5b505af1158015610a97573d6000803e3d6000fd5b505060408051338152602081018890528493507f5bf82acf722e0e26aac00d3cafc380a1032367879f900d55c554ac438c9990b592500160405180910390a290505b92915050565b600085815260016020526040902060050154606090869060ff16610b155760405162461bcd60e51b81526004016103ec9061104e565b600087815260016020526040902060028101546003820154610b38908990611127565b1115610b865760405162461bcd60e51b815260206004820152601c60248201527f4e6f7420656e6f756768207469636b65747320617661696c61626c650000000060448201526064016103ec565b868160040154610b9691906110d5565b341015610bdc5760405162461bcd60e51b8152602060048201526014602482015273125b9cdd59999a58da595b9d081c185e5b595b9d60621b60448201526064016103ec565b868414610c205760405162461bcd60e51b81526020600482015260126024820152710aaa49240c6deeadce840dad2e6dac2e8c6d60731b60448201526064016103ec565b60008767ffffffffffffffff811115610c3b57610c3b61113a565b604051908082528060200260200182016040528015610c64578160200160208202803683370190505b50905060005b88811015610d1857600080546040516331a049f760e11b8152336004820152602481018d9052604481018b90526001600160a01b039091169063634093ee906064016020604051808303816000875af1158015610ccb573d6000803e3d6000fd5b505050506040513d601f19601f82011682018060405250810190610cef9190611150565b905080838381518110610d0457610d04611169565b602090810291909101015250600101610c6a565b5087826003016000828254610d2d9190611127565b9091555050600454600090606490610d4590346110d5565b610d4f91906110ec565b90506000610d5d8234611092565b60018501546040519192506000916001600160a01b039091169083908381818185875af1925050503d8060008114610db1576040519150601f19603f3d011682016040523d82523d6000602084013e610db6565b606091505b5050905080610e075760405162461bcd60e51b815260206004820152601b60248201527f5061796d656e7420746f206f7267616e697a6572206661696c6564000000000060448201526064016103ec565b60408051338152602081018d90528d917fdbaaf4c87ce30816c961a81d110622a3227ede77953d4383d514ff88ab2e0fd3910160405180910390a250919a9950505050505050505050565b610e9d6040518060e001604052806000815260200160006001600160a01b03168152602001600081526020016000815260200160008152602001600015158152602001600081525090565b60008281526001602052604090206005015460ff16610ece5760405162461bcd60e51b81526004016103ec9061104e565b50600090815260016020818152604092839020835160e08101855281548152928101546001600160a01b0316918301919091526002810154928201929092526003820154606082015260048201546080820152600582015460ff16151560a082015260069091015460c082015290565b600060208284031215610f5057600080fd5b5035919050565b60008060408385031215610f6a57600080fd5b50508035926020909101359150565b600080600080600060808688031215610f9157600080fd5b853594506020860135935060408601359250606086013567ffffffffffffffff811115610fbd57600080fd5b8601601f81018813610fce57600080fd5b803567ffffffffffffffff811115610fe557600080fd5b8860208260051b8401011115610ffa57600080fd5b959894975092955050506020019190565b602080825282518282018190526000918401906040840190835b81811015611043578351835260209384019390920191600101611025565b509095945050505050565b602080825260149082015273115d995b9d08191bd95cc81b9bdd08195e1a5cdd60621b604082015260600190565b634e487b7160e01b600052601160045260246000fd5b81810381811115610ad957610ad961107c565b6000602082840312156110b757600080fd5b81516001600160a01b03811681146110ce57600080fd5b9392505050565b8082028115828204841417610ad957610ad961107c565b60008261110957634e487b7160e01b600052601260045260246000fd5b500490565b6000600182016111205761112061107c565b5060010190565b80820180821115610ad957610ad961107c565b634e487b7160e01b600052604160045260246000fd5b60006020828403121561116257600080fd5b5051919050565b634e487b7160e01b600052603260045260246000fdfea2646970667358221220732ebefbeff07ca2143c73802c1f77c06616d4fb32b2a708f99460d9b472709964736f6c634300081c0033","linkReferences":{}},"methodIdentifiers":{"buyListedTicket(uint256)":"50248853","createEvent(uint256,uint256)":"790c0125","events(uint256)":"0b791430","getAvailableTickets(uint256)":"0cc7b2a9","getEventDetails(uint256)":"ec38d5a0","listTicket(uint256,uint256)":"305a905a","listings(uint256)":"de74e57b","owner()":"8da5cb5b","platformFeePercentage()":"cdd78cfc","purchaseTickets(uint256,uint256,bytes32,string[])":"e3418352","setPlatformFee(uint256)":"12e8e2c3","ticketNFT()":"b393391b","withdrawFees()":"476343ee"},"id":0}