{"abi":[{"type":"constructor","inputs":[],"stateMutability":"nonpayable"},{"type":"function","name":"addVerifier","inputs":[{"name":"_verifier","type":"address","internalType":"address"}],"outputs":[],"stateMutability":"nonpayable"},{"type":"function","name":"approve","inputs":[{"name":"to","type":"address","internalType":"address"},{"name":"tokenId","type":"uint256","internalType":"uint256"}],"outputs":[],"stateMutability":"nonpayable"},{"type":"function","name":"balanceOf","inputs":[{"name":"owner","type":"address","internalType":"address"}],"outputs":[{"name":"","type":"uint256","internalType":"uint256"}],"stateMutability":"view"},{"type":"function","name":"burnTicket","inputs":[{"name":"tokenId","type":"uint256","internalType":"uint256"}],"outputs":[],"stateMutability":"nonpayable"},{"type":"function","name":"eventExists","inputs":[{"name":"","type":"uint256","internalType":"uint256"}],"outputs":[{"name":"","type":"bool","internalType":"bool"}],"stateMutability":"view"},{"type":"function","name":"getApproved","inputs":[{"name":"tokenId","type":"uint256","internalType":"uint256"}],"outputs":[{"name":"","type":"address","internalType":"address"}],"stateMutability":"view"},{"type":"function","name":"getTicketDetails","inputs":[{"name":"tokenId","type":"uint256","internalType":"uint256"}],"outputs":[{"name":"","type":"tuple","internalType":"struct TicketNFT.Ticket","components":[{"name":"eventId","type":"uint256","internalType":"uint256"},{"name":"used","type":"bool","internalType":"bool"},{"name":"usedAt","type":"uint256","internalType":"uint256"},{"name":"credentialHash","type":"bytes32","internalType":"bytes32"}]}],"stateMutability":"view"},{"type":"function","name":"isApprovedForAll","inputs":[{"name":"owner","type":"address","internalType":"address"},{"name":"operator","type":"address","internalType":"address"}],"outputs":[{"name":"","type":"bool","internalType":"bool"}],"stateMutability":"view"},{"type":"function","name":"mintTicket","inputs":[{"name":"to","type":"address","internalType":"address"},{"name":"eventId","type":"uint256","internalType":"uint256"},{"name":"credentialHash","type":"bytes32","internalType":"bytes32"}],"outputs":[{"name":"","type":"uint256","internalType":"uint256"}],"stateMutability":"nonpayable"},{"type":"function","name":"name","inputs":[],"outputs":[{"name":"","type":"string","internalType":"string"}],"stateMutability":"view"},{"type":"function","name":"owner","inputs":[],"outputs":[{"name":"","type":"address","internalType":"address"}],"stateMutability":"view"},{"type":"function","name":"ownerOf","inputs":[{"name":"tokenId","type":"uint256","internalType":"uint256"}],"outputs":[{"name":"","type":"address","internalType":"address"}],"stateMutability":"view"},{"type":"function","name":"registerEvent","inputs":[{"name":"_eventId","type":"uint256","internalType":"uint256"}],"outputs":[],"stateMutability":"nonpayable"},{"type":"function","name":"removeVerifier","inputs":[{"name":"_verifier","type":"address","internalType":"address"}],"outputs":[],"stateMutability":"nonpayable"},{"type":"function","name":"renounceOwnership","inputs":[],"outputs":[],"stateMutability":"nonpayable"},{"type":"function","name":"safeTransferFrom","inputs":[{"name":"from","type":"address","internalType":"address"},{"name":"to","type":"address","internalType":"address"},{"name":"tokenId","type":"uint256","internalType":"uint256"}],"outputs":[],"stateMutability":"nonpayable"},{"type":"function","name":"safeTransferFrom","inputs":[{"name":"from","type":"address","internalType":"address"},{"name":"to","type":"address","internalType":"address"},{"name":"tokenId","type":"uint256","internalType":"uint256"},{"name":"data","type":"bytes","internalType":"bytes"}],"outputs":[],"stateMutability":"nonpayable"},{"type":"function","name":"setApprovalForAll","inputs":[{"name":"operator","type":"address","internalType":"address"},{"name":"approved","type":"bool","internalType":"bool"}],"outputs":[],"stateMutability":"nonpayable"},{"type":"function","name":"supportsInterface","inputs":[{"name":"interfaceId","type":"bytes4","internalType":"bytes4"}],"outputs":[{"name":"","type":"bool","internalType":"bool"}],"stateMutability":"view"},{"type":"function","name":"symbol","inputs":[],"outputs":[{"name":"","type":"string","internalType":"string"}],"stateMutability":"view"},{"type":"function","name":"tickets","inputs":[{"name":"","type":"uint256","internalType":"uint256"}],"outputs":[{"name":"eventId","type":"uint256","internalType":"uint256"},{"name":"used","type":"bool","internalType":"bool"},{"name":"usedAt","type":"uint256","internalType":"uint256"},{"name":"credentialHash","type":"bytes32","internalType":"bytes32"}],"stateMutability":"view"},{"type":"function","name":"tokenURI","inputs":[{"name":"tokenId","type":"uint256","internalType":"uint256"}],"outputs":[{"name":"","type":"string","internalType":"string"}],"stateMutability":"view"},{"type":"function","name":"transferFrom","inputs":[{"name":"from","type":"address","internalType":"address"},{"name":"to","type":"address","internalType":"address"},{"name":"tokenId","type":"uint256","internalType":"uint256"}],"outputs":[],"stateMutability":"nonpayable"},{"type":"function","name":"transferOwnership","inputs":[{"name":"newOwner","type":"address","internalType":"address"}],"outputs":[],"stateMutability":"nonpayable"},{"type":"function","name":"useTicket","inputs":[{"name":"tokenId","type":"uint256","internalType":"uint256"}],"outputs":[],"stateMutability":"nonpayable"},{"type":"function","name":"verifiers","inputs":[{"name":"","type":"address","internalType":"address"}],"outputs":[{"name":"","type":"bool","internalType":"bool"}],"stateMutability":"view"},{"type":"function","name":"verifyTicket","inputs":[{"name":"tokenId","type":"uint256","internalType":"uint256"}],"outputs":[{"name":"","type":"bool","internalType":"bool"}],"stateMutability":"view"},{"type":"event","name":"Approval","inputs":[{"name":"owner","type":"address","indexed":true,"internalType":"address"},{"name":"approved","type":"address","indexed":true,"internalType":"address"},{"name":"tokenId","type":"uint256","indexed":true,"internalType":"uint256"}],"anonymous":false},{"type":"event","name":"ApprovalForAll","inputs":[{"name":"owner","type":"address","indexed":true,"internalType":"address"},{"name":"operator","type":"address","indexed":true,"internalType":"address"},{"name":"approved","type":"bool","indexed":false,"internalType":"bool"}],"anonymous":false},{"type":"event","name":"OwnershipTransferred","inputs":[{"name":"previousOwner","type":"address","indexed":true,"internalType":"address"},{"name":"newOwner","type":"address","indexed":true,"internalType":"address"}],"anonymous":false},{"type":"event","name":"TicketBurned","inputs":[{"name":"tokenId","type":"uint256","indexed":true,"internalType":"uint256"},{"name":"holder","type":"address","indexed":true,"internalType":"address"}],"anonymous":false},{"type":"event","name":"TicketMinted","inputs":[{"name":"tokenId","type":"uint256","indexed":true,"internalType":"uint256"},{"name":"holder","type":"address","indexed":true,"internalType":"address"},{"name":"eventId","type":"uint256","indexed":false,"internalType":"uint256"}],"anonymous":false},{"type":"event","name":"TicketUsed","inputs":[{"name":"tokenId","type":"uint256","indexed":true,"internalType":"uint256"},{"name":"timestamp","type":"uint256","indexed":false,"internalType":"uint256"}],"anonymous":false},{"type":"event","name":"Transfer","inputs":[{"name":"from","type":"address","indexed":true,"internalType":"address"},{"name":"to","type":"address","indexed":true,"internalType":"address"},{"name":"tokenId","type":"uint256","indexed":true,"internalType":"uint256"}],"anonymous":false},{"type":"error","name":"ERC721IncorrectOwner","inputs":[{"name":"sender","type":"address","internalType":"address"},{"name":"tokenId","type":"uint256","internalType":"uint256"},{"name":"owner","type":"address","internalType":"address"}]},{"type":"error","name":"ERC721InsufficientApproval","inputs":[{"name":"operator","type":"address","internalType":"address"},{"name":"tokenId","type":"uint256","internalType":"uint256"}]},{"type":"error","name":"ERC721InvalidApprover","inputs":[{"name":"approver","type":"address","internalType":"address"}]},{"type":"error","name":"ERC721InvalidOperator","inputs":[{"name":"operator","type":"address","internalType":"address"}]},{"type":"error","name":"ERC721InvalidOwner","inputs":[{"name":"owner","type":"address","internalType":"address"}]},{"type":"error","name":"ERC721InvalidReceiver","inputs":[{"name":"receiver","type":"address","internalType":"address"}]},{"type":"error","name":"ERC721InvalidSender","inputs":[{"name":"sender","type":"address","internalType":"address"}]},{"type":"error","name":"ERC721NonexistentToken","inputs":[{"name":"tokenId","type":"uint256","internalType":"uint256"}]},{"type":"error","name":"OwnableInvalidOwner","inputs":[{"name":"owner","type":"address","internalType":"address"}]},{"type":"error","name":"OwnableUnauthorizedAccount","inputs":[{"name":"account","type":"address","internalType":"address"}]}],"bytecode":{"object":"0x608060405234801561001057600080fd5b50336040518060400160405280601081526020016f141c9bdbd994185cdcc8151a58dad95d60821b81525060405180604001604052806006815260200165151250d2d15560d21b815250816000908161006991906101a7565b50600161007682826101a7565b5050506001600160a01b0381166100a757604051631e4fbdf760e01b81526000600482015260240160405180910390fd5b6100b0816100b6565b50610265565b600680546001600160a01b038381166001600160a01b0319831681179093556040519116919082907f8be0079c531659141344cd1fd0a4f28419497f9722a3daafe3b4186f6b6457e090600090a35050565b634e487b7160e01b600052604160045260246000fd5b600181811c9082168061013257607f821691505b60208210810361015257634e487b7160e01b600052602260045260246000fd5b50919050565b601f8211156101a257806000526020600020601f840160051c8101602085101561017f5750805b601f840160051c820191505b8181101561019f576000815560010161018b565b50505b505050565b81516001600160401b038111156101c0576101c0610108565b6101d4816101ce845461011e565b84610158565b6020601f82116001811461020857600083156101f05750848201515b600019600385901b1c1916600184901b17845561019f565b600084815260208120601f198516915b828110156102385787850151825560209485019460019092019101610218565b50848210156102565786840151600019600387901b60f8161c191681555b50505050600190811b01905550565b611931806102746000396000f3fe608060405234801561001057600080fd5b50600436106101a95760003560e01c80636c824487116100f9578063a3c28dfc11610097578063c87b56dd11610071578063c87b56dd14610425578063ca2dfd0a14610438578063e985e9c51461044b578063f2fde38b1461045e57600080fd5b8063a3c28dfc146103dc578063a476b73d146103ff578063b88d4fde1461041257600080fd5b80638da5cb5b116100d35780638da5cb5b1461039d5780639000b3d6146103ae57806395d89b41146103c1578063a22cb465146103c957600080fd5b80636c8244871461035f57806370a0823114610382578063715018a61461039557600080fd5b806324c141601161016657806350b447121161014057806350b44712146102bf578063543cb81f14610318578063634093ee1461032b5780636352211e1461034c57600080fd5b806324c1416014610251578063266064481461029957806342842e0e146102ac57600080fd5b806301ffc9a7146101ae57806306fdde03146101d6578063081812fc146101eb578063095ea7b314610216578063207e110c1461022b57806323b872dd1461023e575b600080fd5b6101c16101bc3660046114ee565b610471565b60405190151581526020015b60405180910390f35b6101de610482565b6040516101cd919061155b565b6101fe6101f936600461156e565b610514565b6040516001600160a01b0390911681526020016101cd565b61022961022436600461159c565b61053d565b005b61022961023936600461156e565b61054c565b61022961024c3660046115c8565b61056f565b61026461025f36600461156e565b6105ff565b6040516101cd919081518152602080830151151590820152604080830151908201526060918201519181019190915260800190565b6102296102a736600461156e565b61069c565b6102296102ba3660046115c8565b610793565b6102f86102cd36600461156e565b6007602052600090815260409020805460018201546002830154600390930154919260ff9091169184565b6040805194855292151560208501529183015260608201526080016101cd565b6101c161032636600461156e565b6107b3565b61033e610339366004611609565b6107ef565b6040519081526020016101cd565b6101fe61035a36600461156e565b6109ff565b6101c161036d36600461163e565b60086020526000908152604090205460ff1681565b61033e61039036600461163e565b610a0a565b610229610a52565b6006546001600160a01b03166101fe565b6102296103bc36600461163e565b610a66565b6101de610a92565b6102296103d736600461165b565b610aa1565b6101c16103ea36600461156e565b60096020526000908152604090205460ff1681565b61022961040d36600461156e565b610aac565b6102296104203660046116af565b610bab565b6101de61043336600461156e565b610bc3565b61022961044636600461163e565b610c38565b6101c1610459366004611797565b610c61565b61022961046c36600461163e565b610c8f565b600061047c82610ccd565b92915050565b606060008054610491906117c5565b80601f01602080910402602001604051908101604052809291908181526020018280546104bd906117c5565b801561050a5780601f106104df5761010080835404028352916020019161050a565b820191906000526020600020905b8154815290600101906020018083116104ed57829003601f168201915b5050505050905090565b600061051f82610d1d565b506000828152600460205260409020546001600160a01b031661047c565b610548828233610d55565b5050565b610554610d62565b6000908152600960205260409020805460ff19166001179055565b6001600160a01b03821661059e57604051633250574960e11b8152600060048201526024015b60405180910390fd5b60006105ab838333610d8f565b9050836001600160a01b0316816001600160a01b0316146105f9576040516364283d7b60e01b81526001600160a01b0380861660048301526024820184905282166044820152606401610595565b50505050565b60408051608081018252600080825260208201819052918101829052606081018290529061062c83610e83565b6001600160a01b0316036106525760405162461bcd60e51b8152600401610595906117ff565b50600090815260076020908152604091829020825160808101845281548152600182015460ff16151592810192909252600281015492820192909252600390910154606082015290565b6106a4610d62565b60006106af82610e83565b6001600160a01b0316036106d55760405162461bcd60e51b8152600401610595906117ff565b60008181526007602052604090206001015460ff161561072d5760405162461bcd60e51b8152602060048201526013602482015272151a58dad95d08185b1c9958591e481d5cd959606a1b6044820152606401610595565b600081815260076020526040908190206001818101805460ff19169091179055426002909101819055905182917fad0a02848182e7d3a9bb0ae2cc919bdef92f9da6b0a45ced3656cf5443212ede9161078891815260200190565b60405180910390a250565b6107ae83838360405180602001604052806000815250610bab565b505050565b6000806107bf83610e83565b6001600160a01b0316036107d557506000919050565b5060009081526007602052604090206001015460ff161590565b3360009081526008602052604081205460ff1661084e5760405162461bcd60e51b815260206004820152601760248201527f4e6f7420617574686f72697a65642076657269666965720000000000000000006044820152606401610595565b60008381526009602052604090205460ff166108a35760405162461bcd60e51b8152602060048201526014602482015273115d995b9d08191bd95cc81b9bdd08195e1a5cdd60621b6044820152606401610595565b6001600160a01b0384166108ed5760405162461bcd60e51b8152602060048201526011602482015270125b9d985b1a59081c9958da5c1a595b9d607a1b6044820152606401610595565b8161093a5760405162461bcd60e51b815260206004820152601760248201527f496e76616c69642063726564656e7469616c20686173680000000000000000006044820152606401610595565b600a80546000918261094b8361182e565b909155506040805160808101825286815260006020808301828152838501838152606085018a815287855260079093529490922092518355905160018301805460ff191691151591909117905591516002820155905160039091015590506109b38582610eea565b846001600160a01b0316817f5c1c9352d51031acc9a558d7cdcca15b0ce5fe4f46d7315cca355248175b0a37866040516109ef91815260200190565b60405180910390a3949350505050565b600061047c82610d1d565b60006001600160a01b038216610a36576040516322718ad960e21b815260006004820152602401610595565b506001600160a01b031660009081526003602052604090205490565b610a5a610d62565b610a646000610f04565b565b610a6e610d62565b6001600160a01b03166000908152600860205260409020805460ff19166001179055565b606060018054610491906117c5565b610548338383610f56565b610ab5816109ff565b6001600160a01b0316336001600160a01b03161480610ade57506006546001600160a01b031633145b610b235760405162461bcd60e51b81526020600482015260166024820152752737ba1030baba3437b934bd32b2103a3790313ab93760511b6044820152606401610595565b6000610b2e82610e83565b6001600160a01b031603610b545760405162461bcd60e51b8152600401610595906117ff565b60008181526007602052604080822082815560018101805460ff191690556002810183905560030182905551339183917ff9017e896fd1920ef14b66376fe34ace88734084008a337b98e41568cf377b0b9190a350565b610bb684848461056f565b6105f93385858585610ff5565b6060610bce82610d1d565b506000610be660408051602081019091526000815290565b90506000815111610c065760405180602001604052806000815250610c31565b80610c1084611120565b604051602001610c21929190611855565b6040516020818303038152906040525b9392505050565b610c40610d62565b6001600160a01b03166000908152600860205260409020805460ff19169055565b6001600160a01b03918216600090815260056020908152604080832093909416825291909152205460ff1690565b610c97610d62565b6001600160a01b038116610cc157604051631e4fbdf760e01b815260006004820152602401610595565b610cca81610f04565b50565b60006001600160e01b031982166380ac58cd60e01b1480610cfe57506001600160e01b03198216635b5e139f60e01b145b8061047c57506301ffc9a760e01b6001600160e01b031983161461047c565b600080610d2983610e83565b90506001600160a01b03811661047c57604051637e27328960e01b815260048101849052602401610595565b6107ae83838360016111b3565b6006546001600160a01b03163314610a645760405163118cdaa760e01b8152336004820152602401610595565b600080610d9b84610e83565b90506001600160a01b03831615610db757610db78184866112b9565b6001600160a01b03811615610df557610dd46000856000806111b3565b6001600160a01b038116600090815260036020526040902080546000190190555b6001600160a01b03851615610e24576001600160a01b0385166000908152600360205260409020805460010190555b60008481526002602052604080822080546001600160a01b0319166001600160a01b0389811691821790925591518793918516917fddf252ad1be2c89b69c2b068fc378daa952ba7f163c4a11628f55a4df523b3ef91a4949350505050565b6040516331a9108f60e11b8152600481018290526000903090636352211e90602401602060405180830381865afa925050508015610ede575060408051601f3d908101601f19168201909252610edb91810190611884565b60015b61047c57506000919050565b61054882826040518060200160405280600081525061131d565b600680546001600160a01b038381166001600160a01b0319831681179093556040519116919082907f8be0079c531659141344cd1fd0a4f28419497f9722a3daafe3b4186f6b6457e090600090a35050565b6001600160a01b038216610f8857604051630b61174360e31b81526001600160a01b0383166004820152602401610595565b6001600160a01b03838116600081815260056020908152604080832094871680845294825291829020805460ff191686151590811790915591519182527f17307eab39ab6107e8899845ad3d59bd9653f200f220920489ca2b5937696c31910160405180910390a3505050565b6001600160a01b0383163b1561111957604051630a85bd0160e11b81526001600160a01b0384169063150b7a02906110379088908890879087906004016118a1565b6020604051808303816000875af1925050508015611072575060408051601f3d908101601f1916820190925261106f918101906118de565b60015b6110db573d8080156110a0576040519150601f19603f3d011682016040523d82523d6000602084013e6110a5565b606091505b5080516000036110d357604051633250574960e11b81526001600160a01b0385166004820152602401610595565b805160208201fd5b6001600160e01b03198116630a85bd0160e11b1461111757604051633250574960e11b81526001600160a01b0385166004820152602401610595565b505b5050505050565b6060600061112d83611335565b600101905060008167ffffffffffffffff81111561114d5761114d611699565b6040519080825280601f01601f191660200182016040528015611177576020820181803683370190505b5090508181016020015b600019016f181899199a1a9b1b9c1cb0b131b232b360811b600a86061a8153600a850494508461118157509392505050565b80806111c757506001600160a01b03821615155b156112895760006111d784610d1d565b90506001600160a01b038316158015906112035750826001600160a01b0316816001600160a01b031614155b801561121657506112148184610c61565b155b1561123f5760405163a9fbf51f60e01b81526001600160a01b0384166004820152602401610595565b81156112875783856001600160a01b0316826001600160a01b03167f8c5be1e5ebec7d5bd14f71427d1e84f3dd0314c0f7b2291e5b200ac8c7c3b92560405160405180910390a45b505b5050600090815260046020526040902080546001600160a01b0319166001600160a01b0392909216919091179055565b6112c483838361140d565b6107ae576001600160a01b0383166112f257604051637e27328960e01b815260048101829052602401610595565b60405163177e802f60e01b81526001600160a01b038316600482015260248101829052604401610595565b6113278383611473565b6107ae336000858585610ff5565b60008072184f03e93ff9f4daa797ed6e38ed64bf6a1f0160401b83106113745772184f03e93ff9f4daa797ed6e38ed64bf6a1f0160401b830492506040015b6d04ee2d6d415b85acef810000000083106113a0576d04ee2d6d415b85acef8100000000830492506020015b662386f26fc1000083106113be57662386f26fc10000830492506010015b6305f5e10083106113d6576305f5e100830492506008015b61271083106113ea57612710830492506004015b606483106113fc576064830492506002015b600a831061047c5760010192915050565b60006001600160a01b0383161580159061146b5750826001600160a01b0316846001600160a01b0316148061144757506114478484610c61565b8061146b57506000828152600460205260409020546001600160a01b038481169116145b949350505050565b6001600160a01b03821661149d57604051633250574960e11b815260006004820152602401610595565b60006114ab83836000610d8f565b90506001600160a01b038116156107ae576040516339e3563760e11b815260006004820152602401610595565b6001600160e01b031981168114610cca57600080fd5b60006020828403121561150057600080fd5b8135610c31816114d8565b60005b8381101561152657818101518382015260200161150e565b50506000910152565b6000815180845261154781602086016020860161150b565b601f01601f19169290920160200192915050565b602081526000610c31602083018461152f565b60006020828403121561158057600080fd5b5035919050565b6001600160a01b0381168114610cca57600080fd5b600080604083850312156115af57600080fd5b82356115ba81611587565b946020939093013593505050565b6000806000606084860312156115dd57600080fd5b83356115e881611587565b925060208401356115f881611587565b929592945050506040919091013590565b60008060006060848603121561161e57600080fd5b833561162981611587565b95602085013595506040909401359392505050565b60006020828403121561165057600080fd5b8135610c3181611587565b6000806040838503121561166e57600080fd5b823561167981611587565b91506020830135801515811461168e57600080fd5b809150509250929050565b634e487b7160e01b600052604160045260246000fd5b600080600080608085870312156116c557600080fd5b84356116d081611587565b935060208501356116e081611587565b925060408501359150606085013567ffffffffffffffff81111561170357600080fd5b8501601f8101871361171457600080fd5b803567ffffffffffffffff81111561172e5761172e611699565b604051601f8201601f19908116603f0116810167ffffffffffffffff8111828210171561175d5761175d611699565b60405281815282820160200189101561177557600080fd5b8160208401602083013760006020838301015280935050505092959194509250565b600080604083850312156117aa57600080fd5b82356117b581611587565b9150602083013561168e81611587565b600181811c908216806117d957607f821691505b6020821081036117f957634e487b7160e01b600052602260045260246000fd5b50919050565b602080825260159082015274151a58dad95d08191bd95cc81b9bdd08195e1a5cdd605a1b604082015260600190565b60006001820161184e57634e487b7160e01b600052601160045260246000fd5b5060010190565b6000835161186781846020880161150b565b83519083019061187b81836020880161150b565b01949350505050565b60006020828403121561189657600080fd5b8151610c3181611587565b6001600160a01b03858116825284166020820152604081018390526080606082018190526000906118d49083018461152f565b9695505050505050565b6000602082840312156118f057600080fd5b8151610c31816114d856fea26469706673582212204c76eda6415bb9c7231d0286412cdb7d9c518cbe3eb3eae790eeed27aa9babae64736f6c634300081c0033","linkReferences":{}},"methodIdentifiers":{"addVerifier(address)":"9000b3d6","approve(address,uint256)":"095ea7b3","balanceOf(address)":"70a08231","burnTicket(uint256)":"a476b73d","eventExists(uint256)":"a3c28dfc","getApproved(uint256)":"081812fc","getTicketDetails(uint256)":"24c14160","isApprovedForAll(address,address)":"e985e9c5","mintTicket(address,uint256,bytes32)":"634093ee","name()":"06fdde03","owner()":"8da5cb5b","ownerOf(uint256)":"6352211e","registerEvent(uint256)":"207e110c","removeVerifier(address)":"ca2dfd0a","renounceOwnership()":"715018a6","safeTransferFrom(address,address,uint256)":"42842e0e","safeTransferFrom(address,address,uint256,bytes)":"b88d4fde","setApprovalForAll(address,bool)":"a22cb465","supportsInterface(bytes4)":"01ffc9a7","symbol()":"95d89b41","tickets(uint256)":"50b44712","tokenURI(uint256)":"c87b56dd","transferFrom(address,address,uint256)":"23b872dd","transferOwnership(address)":"f2fde38b","useTicket(uint256)":"26606448","verifiers(address)":"6c824487","verifyTicket(uint256)":"543cb81f"},"id":1}